S02000004C45445F73657175656E63655F56315F7265666163746F722E73726563DC
S11300000C9431000C943B000C943B000C943B008A
S11300100C943B000C943B000C943B000C943B0070
S11300200C943B000C943B000C943B000C943B0060
S11300300C943B000C943B000C943B000C943B0050
S11300400C943B000C943B000C943B000C943B0040
S11300500C943B0087008D00930099009F00A5003D
S1130060AB0011241FBECFE5D8E0DEBFCDBF0E9498
S1130070F8000C9480020C94000061E080E00E947F
S1130080E40062E080E00E94E40063E080E00E941B
S1130090E40064E080E00E94E40060E080E00E940C
S11300A0CB000895CF93DF931F92CDB7DEB71982AB
S11300B011E000E004C011E000E001C010E0AE0176
S11300C04F5F5F4F60E080E00E94CF008981813004
S11300D0A9F783ED90E30197F1F700C00000AE01AA
S11300E04F5F5F4F60E080E00E94CF0089818130E4
S11300F031F71111E4CF0F5F802F90E0FC013197AD
S1130100E730F10570F5E65DFF4F0C947A0241E0AB
S113011061E080E00E94F50039C041E062E080E0E7
S11301200E94F50033C041E063E080E00E94F500E6
S11301302DC041E064E080E00E94F50027C040E06B
S113014061E080E00E94F50021C040E062E080E0D0
S11301500E94F5001BC040E063E080E00E94F500CF
S113016015C040E061E080E00E94F50040E062E0FC
S113017080E00E94F50040E063E080E00E94F5002A
S113018040E064E080E00E94F50000E0093009F4FA
S113019092CF11E094CF40E00E94FF000895CF93E6
S11301A0DF9300D0CDB7DEB75A834983452B31F0B6
S11301B0AE014F5F5F4F0E940B0201C080E00F90C1
S11301C00F90DF91CF910895CF93DF93C82FD62F4F
S11301D041E00E94FF00813029F440E06D2F8C2F14
S11301E00E948501DF91CF9108950E9485010895B1
S11301F00E943D000E94520080E090E00895843007
S113020008F07BC0683008F07AC0423008F079C04A
S1130210813011F130F08230D1F1833009F452C0D1
S113022072C0413061F42AB381E090E002C0880FCB
S1130230991F6A95E2F7822B8ABB81E008952AB35D
S113024081E090E002C0880F991F6A95E2F78095DB
S113025082238ABB81E00895413061F427B381E0B1
S113026090E002C0880F991F6A95E2F7822B87BB42
S113027081E0089527B381E090E002C0880F991FC0
S11302806A95E2F78095822387BB81E00895413027
S113029061F424B381E090E002C0880F991F6A954D
S11302A0E2F7822B84BB81E0089524B381E090E0DF
S11302B002C0880F991F6A95E2F78095822384BB58
S11302C081E00895413061F421B381E090E002C0FF
S11302D0880F991F6A95E2F7822B81BB81E008950C
S11302E021B381E090E002C0880F991F6A95E2F77C
S11302F08095822381BB81E0089580E0089580E0A9
S1130300089580E0089581E00895843008F07BC06A
S1130310683008F07AC0423008F079C0813011F1B9
S113032030F08230D1F1833009F452C072C04130D0
S113033061F42BB381E090E002C0880F991F6A95A5
S1130340E2F7822B8BBB81E008952BB381E090E030
S113035002C0880F991F6A95E2F7809582238BBBB0
S113036081E00895413061F428B381E090E002C057
S1130370880F991F6A95E2F7822B88BB81E0089564
S113038028B381E090E002C0880F991F6A95E2F7D4
S11303908095822388BB81E00895413061F425B3C0
S11303A081E090E002C0880F991F6A95E2F7822BE2
S11303B085BB81E0089525B381E090E002C0880FF9
S11303C0991F6A95E2F78095822385BB81E00895A1
S11303D0413061F422B381E090E002C0880F991F9C
S11303E06A95E2F7822B82BB81E0089522B381E013
S11303F090E002C0880F991F6A95E2F780958223E6
S113040082BB81E0089580E0089580E0089580E053
S1130410089581E00895843008F064C0683008F0DD
S113042063C04115510509F461C08130E1F030F039
S1130430823071F1833009F440C05AC089B390E02E
S113044002C0959587956A95E2F780FF06C0DA01A8
S1130450ED91FC9181E080830895DA01ED91FC91A6
S1130460108281E0089586B390E002C09595879547
S11304706A95E2F780FF06C0DA01ED91FC9181E014
S113048080830895DA01ED91FC91108281E0089552
S113049083B390E002C0959587956A95E2F780FF53
S11304A006C0DA01ED91FC9181E080830895DA01C0
S11304B0ED91FC91108281E0089580B390E002C038
S11304C0959587956A95E2F780FF06C0DA01ED916C
S11304D0FC9181E080830895DA01ED91FC91108212
S11304E081E0089580E0089580E0089580E0089513
S11304F081E00895EE0FFF1F0590F491E02D09941B
S1070500F894FFCF99
S9030000FC
