S02000004C45445F73657175656E63655F56335F7265666163746F722E73726563DA
S11300000C9431000C94B0030C94D9030C940204A6
S11300100C944E000C944E000C944E000C944E0024
S11300200C944E000C944E000C949F060C94C9063C
S11300300C944E000C944E000C944E000C944E0004
S11300400C944E000C944E000C944E000C944E00F4
S11300500C944E00DF00F8001B0148017F01AC0145
S1130060CF0111241FBECFE5D8E0DEBFCDBF10E025
S1130070A0E6B0E0ECE7F2E102C005900D92A236F2
S1130080B107D9F720E0A2E6B0E001C01D92A03785
S1130090B207E1F70E941A020C943C090C94000088
S11300A0809163008F5F80936300883011F4109215
S11300B063000895809162008F5F809362008330B3
S11300C0C9F028F4813041F0823069F028C08430CE
S11300D0C1F08530E9F023C028EC30E030936100B2
S11300E02093600022C02CE231E030936100209321
S11300F060001BC020E931E0309361002093600070
S113010014C024EF31E030936100209360000DC0EF
S113011020E233E0309361002093600006C024E6BF
S113012030E03093610020936000863011F4109227
S113013062000895CF93DF9300D000D0CDB7DEB72F
S1130140198283E08A8391E09B838C8361E080E061
S11301500E94060262E080E00E94060263E080E002
S11301600E94060264E080E00E940602CE0101962D
S11301700E942D03CE0103960E942D0380E590E09A
S11301800E94A6038AE590E00E94AB030F900F90B3
S11301900F900F90DF91CF91089500E010E0C0E040
S11301A0D0E0E09163008E2F90E0FC013197E730BE
S11301B0F10508F00DC1E65DFF4F0C94360941E0EE
S11301C061E080E00E941702B80180E090E00E94A4
S11301D017080E94250540E061E080E00E941702B4
S11301E0BE0180E090E00E9417080E94250504C12A
S11301F041E061E080E00E94170241E062E080E0BB
S11302000E941702B80180E090E00E9417080E9443
S1130210250540E061E080E00E94170240E062E0D2
S113022080E00E941702BE0180E090E00E9417085F
S11302300E942505E1C041E061E080E00E941702D0
S113024041E062E080E00E94170241E063E080E068
S11302500E941702B80180E090E00E9417080E94F3
S1130260250540E061E080E00E94170240E062E082
S113027080E00E94170240E063E080E00E941702E1
S1130280BE0180E090E00E9417080E942505B4C0DA
S113029041E061E080E00E94170241E062E080E01A
S11302A00E94170241E063E080E00E94170241E0EF
S11302B064E080E00E941702B80180E090E00E94B0
S11302C017080E94250540E061E080E00E941702C3
S11302D040E062E080E00E94170240E063E080E0DA
S11302E00E94170240E064E080E00E941702BE0111
S11302F080E090E00E9417080E9425057DC041E03F
S113030062E080E00E94170241E063E080E00E9426
S1130310170241E064E080E00E941702B80180E027
S113032090E00E9417080E94250540E062E080E00A
S11303300E94170240E063E080E00E94170240E060
S113034064E080E00E941702BE0180E090E00E9419
S113035017080E94250550C041E063E080E00E9438
S1130360170241E064E080E00E941702B80180E0D7
S113037090E00E9417080E94250540E063E080E0B9
S11303800E94170240E064E080E00E941702BE0170
S113039080E090E00E9417080E9425052DC041E0EE
S11303A064E080E00E941702B80180E090E00E94BF
S11303B017080E94250540E064E080E00E941702CF
S11303C0BE0180E090E00E9417080E94250514C039
S11303D040E061E080E00E94170240E062E080E0DB
S11303E00E94170240E063E080E00E94170240E0B0
S11303F064E080E00E9417020091600010916100A7
S113040068EE73E0EB01C01BD10BCBCECF93DF932F
S1130410C82FD62F41E00E942102813029F440E008
S11304206D2F8C2F0E94A702DF91CF9108950E9417
S1130430A70208950E949A000E94CD0080E090E0F7
S11304400895843008F07BC0683008F07AC04230E8
S113045008F079C0813011F130F08230D1F183306D
S113046009F452C072C0413061F42AB381E090E0D3
S113047002C0880F991F6A95E2F7822B8ABB81E03C
S113048008952AB381E090E002C0880F991F6A950D
S1130490E2F7809582238ABB81E00895413061F4BC
S11304A027B381E090E002C0880F991F6A95E2F7B4
S11304B0822B87BB81E0089527B381E090E002C0DE
S11304C0880F991F6A95E2F78095822387BB81E0A4
S11304D00895413061F424B381E090E002C0880FB4
S11304E0991F6A95E2F7822B84BB81E0089524B3B7
S11304F081E090E002C0880F991F6A95E2F7809529
S1130500822384BB81E00895413061F421B381E00A
S113051090E002C0880F991F6A95E2F7822B81BB95
S113052081E0089521B381E090E002C0880F991F13
S11305306A95E2F78095822381BB81E0089580E08B
S1130540089580E0089580E0089581E0089584305E
S113055008F07BC0683008F07AC0423008F079C0F7
S1130560813011F130F08230D1F1833009F452C07E
S113057072C0413061F42BB381E090E002C0880F77
S1130580991F6A95E2F7822B8BBB81E008952BB308
S113059081E090E002C0880F991F6A95E2F7809588
S11305A082238BBB81E00895413061F428B381E05C
S11305B090E002C0880F991F6A95E2F7822B88BBEE
S11305C081E0089528B381E090E002C0880F991F6C
S11305D06A95E2F78095822388BB81E008954130D3
S11305E061F425B381E090E002C0880F991F6A95F9
S11305F0E2F7822B85BB81E0089525B381E090E08A
S113060002C0880F991F6A95E2F78095822385BB03
S113061081E00895413061F422B381E090E002C0AA
S1130620880F991F6A95E2F7822B82BB81E00895B7
S113063022B381E090E002C0880F991F6A95E2F727
S11306408095822382BB81E0089580E0089580E054
S1130650089580E0089581E00895FC019FB79F7795
S11306609FBF9081913081F120F0923009F457C0FE
S113067069C081B38B7F81BB8BB780648BBF818161
S1130680813069F028F0823089F08330B1F05AC0AB
S113069085B78E7F85BF85B78D7F85BF53C085B7EE
S11306A0816085BF85B78D7F85BF4CC085B78E7F40
S11306B085BF85B7826085BF45C085B7816085BF2A
S11306C085B7826085BF3EC081B3877F81BB8BB70E
S11306D080688BBF8181813069F028F0823089F095
S11306E08330B1F02FC085B78B7F85BF85B7877FF7
S11306F085BF28C085B7846085BF85B7877F85BFE0
S113070021C085B78B7F85BF85B7886085BF1AC038
S113071085B7846085BF85B7886085BF13C087B3FC
S1130720877F87BB8BB780628BBF8181823019F052
S1130730833029F007C084B78F7B84BF03C084B79C
S1130740806484BF8FB780688FBF089590936900D9
S113075080936800089590936700809366000895DD
S11307601F920F920FB60F9211242F933F934F9322
S11307705F936F937F938F939F93AF93BF93EF9305
S1130780FF93E0916800F0916900309709F00995B2
S1130790FF91EF91BF91AF919F918F917F916F9155
S11307A05F914F913F912F910F900FBE0F901F902B
S11307B018951F920F920FB60F9211242F933F9307
S11307C04F935F936F937F938F939F93AF93BF9355
S11307D0EF93FF93E0916600F0916700309709F082
S11307E00995FF91EF91BF91AF919F918F917F9167
S11307F06F915F914F913F912F910F900FBE0F908A
S11308001F9018951F920F920FB60F9211242F93D9
S11308103F934F935F936F937F938F939F93AF9384
S1130820BF93EF93FF93E0916400F09165003097DC
S113083009F00995FF91EF91BF91AF919F918F912D
S11308407F916F915F914F913F912F910F900FBEC8
S11308500F901F901895CF92DF92EF92FF92CF9353
S1130860DF936B017C01EA012FE632E143E052E4BD
S11308700E94710718160CF453C02FE632E143E0CE
S11308805DE3C701B6010E94710718162CF081E0E0
S113089090E09983888345C02FE632E143E85EE324
S11308A0C701B6010E947107181634F088E090E081
S11308B09983888381E035C02FE632E143E050E438
S11308C0C701B6010E947107181634F080E490E065
S11308D09983888381E025C02FE632E143E051E427
S11308E0C701B6010E947107181634F080E091E048
S11308F09983888381E015C02FE632E143E052E416
S1130900C701B6010E947107181634F080E094E024
S11309109983888381E005C01982188281E001C02F
S113092080E0DF91CF91FF90EF90DF90CF9008951A
S1130930CF93DF93EB018034910581F130F4813062
S1130940910561F00897D1F059C0811561E09607CF
S1130950A9F18115944009F441C050C06FE672E1D9
S113096083E09DE30E9404072FE632E143E059E36C
S11309700E9476070E94E807688341C06FE672E12F
S113098083E89EE30E9404072FE632E143E85AE33A
S11309900E9476070E94E807688331C06FE672E11F
S11309A083E090E40E9404072FE632E143E05CE335
S11309B00E9476070E94E807688321C06FE672E10F
S11309C083E091E40E9404072FE632E143E05DE313
S11309D00E9476070E94E807688311C06FE672E1FF
S11309E083E092E40E9404072FE632E143E05EE3F1
S11309F00E9476070E94E807688301C01882DF918D
S1130A00CF91089580349105A9F030F48130910597
S1130A1059F0089761F017C0811521E0920769F039
S1130A208115944069F00FC081E883BF089582E87E
S1130A3083BF089583E883BF089584E883BF08953E
S1130A4085E883BF089513BE08958F929F92AF9255
S1130A50BF92CF92DF92EF92FF921F93CF93DF93D7
S1130A60CDB7DEB727970FB6F894DEBF0FBECDBF64
S1130A706B017C01AE014E5F5F4F0E942B048130FD
S1130A8071F4A7019601BE016F5F7F4F8A819B813C
S1130A900E9498041C821D821E821F8211C080E065
S1130AA094E09B838A832FE632E143E052E4C7015A
S1130AB0B6010E9476076C837D838E839F8319829F
S1130AC0CC80DD80EE80FF80C701B6010E94E8077C
S1130AD0162F70E080E090E00E9419089B01AC01A1
S1130AE0C701B6010E9404072FE632E143E052E455
S1130AF00E94C9080E94E807F62E898182BF11115D
S1130B0008C08A819B810E94020508B600FEFDCFC1
S1130B1000C185E883BF07C008B600FEFDCF1150B1
S1130B2088B7816088BF1111F7CFFF2009F453C043
S1130B306F2D70E080E090E00E9419084B015C0189
S1130B402FE632E143E05DE30E94710718162CF0B2
S1130B5081E090E09B838A833EC02FE632E143E844
S1130B605EE3C501B4010E94710718162CF088E0F9
S1130B7090E09B838A832FC02FE632E143E050E468
S1130B80C501B4010E94710718162CF080E490E0AE
S1130B909B838A8320C02FE632E143E051E4C50100
S1130BA0B4010E94710718162CF080E091E09B8339
S1130BB08A8311C02FE632E143E052E4C501B40157
S1130BC00E94710718162CF080E094E09B838A83BE
S1130BD002C01B821A828A819B818034910509F4A8
S1130BE045C030F48130910569F0089729F18CC033
S1130BF0811521E0920709F453C08115944009F44A
S1130C0069C082C06F2D70E080E090E00E941908F6
S1130C109B01AC016FE672E183E09DE30E9404074F
S1130C202FE632E143E059E30E9476070E94E80789
S1130C3062BF81E883BF6AC06F2D70E080E090E0FE
S1130C400E9419089B01AC016FE672E183E89EE300
S1130C500E9404072FE632E143E85AE30E94760734
S1130C600E94E80762BF82E883BF50C06F2D70E026
S1130C7080E090E00E9419089B01AC016FE672E1EC
S1130C8083E090E40E9404072FE632E143E05CE352
S1130C900E9476070E94E80762BF83E883BF36C0DC
S1130CA06F2D70E080E090E00E9419089B01AC0178
S1130CB06FE672E183E091E40E9404072FE632E1DB
S1130CC043E05DE30E9476070E94E80762BF84E880
S1130CD083BF1CC06F2D70E080E090E00E94190873
S1130CE09B01AC016FE672E183E092E40E94040789
S1130CF02FE632E143E05EE30E9476070E94E807B4
S1130D0062BF85E883BF02C012BE13BE08B600FEF0
S1130D10FDCF88B7816088BF13BE27960FB6F894BD
S1130D20DEBF0FBECDBFDF91CF911F91FF90EF903B
S1130D30DF90CF90BF90AF909F908F9008951F92B7
S1130D400F920FB60F9211248F939F9390916D0081
S1130D50992379F080916C008F5F80936C009813D5
S1130D6011C080916A008F5F80936A0010926C00BA
S1130D7009C080916A008F5F80936A0012BE8091DF
S1130D806B008CBF9F918F910F900FBE0F901F909F
S1130D9018951F920F920FB60F9211242F933F9321
S1130DA04F935F936F937F938F939F93AF93BF936F
S1130DB0EF93FF93E0916E00F0916F00309799F0FC
S1130DC090916D00992359F080916C008F5F80930E
S1130DD06C00981308C0099510926C0004C0099522
S1130DE080916B0082BFFF91EF91BF91AF919F9172
S1130DF08F917F916F915F914F913F912F910F90C0
S1130E000FBE0F901F9018955058BB27AA270E9419
S1130E101C070C948F080E94810838F00E948808EF
S1130E2020F039F49F3F19F426F40C947E080EF454
S1130E30E095E7FB0C947808E92F0E94A00858F38A
S1130E40BA17620773078407950720F079F4A6F5AB
S1130E500C94C2080EF4E0950B2EBA2FA02D0B01B2
S1130E60B90190010C01CA01A0011124FF27591BEB
S1130E7099F0593F50F4503E68F11A16F040A22FF1
S1130E80232F342F4427585FF3CF46953795279562
S1130E90A795F0405395C9F77EF41F16BA0B620B61
S1130EA0730B840BBAF09150A1F0FF0FBB1F661FA8
S1130EB0771F881FC2F70EC0BA0F621F731F841FEB
S1130EC048F4879577956795B795F7959E3F08F011
S1130ED0B0CF9395880F08F09927EE0F97958795D3
S1130EE008950E94540808F481E008950E948A0736
S1130EF00C948F080E94880858F00E94810840F0E2
S1130F0029F45F3F29F00C94780851110C94C3081C
S1130F100C947E080E94A00868F39923B1F355232A
S1130F2091F3951B550BBB27AA27621773078407F8
S1130F3038F09F5F5F4F220F331F441FAA1FA9F38E
S1130F4035D00E2E3AF0E0E832D091505040E6957C
S1130F50001CCAF72BD0FE2F29D0660F771F881FDD
S1130F60BB1F261737074807AB07B0E809F0BB0BD0
S1130F70802DBF01FF2793585F4F3AF09E3F5105E4
S1130F8078F00C9478080C94C3085F3FE4F3983E1F
S1130F90D4F3869577956795B795F7959F5FC9F7CD
S1130FA0880F911D9695879597F90895E1E0660F4E
S1130FB0771F881FBB1F621773078407BA0720F0C7
S1130FC0621B730B840BBA0BEE1F88F7E095089530
S1130FD00E94A80888F09F5798F0B92F9927B75115
S1130FE0B0F0E1F0660F771F881F991F1AF0BA95C9
S1130FF0C9F714C0B13091F00E94C208B1E008955D
S11310000C94C208672F782F8827B85F39F0B93F4E
S1131010CCF3869577956795B395D9F73EF490957B
S11310208095709561957F4F8F4F9F4F0895E894F9
S113103009C097FB3EF490958095709561957F4F1C
S11310408F4F9F4F9923A9F0F92F96E9BB279395CA
S1131050F695879577956795B795F111F8CFFAF4DA
S1131060BB0F11F460FF1BC06F5F7F4F8F4F9F4F0B
S113107016C0882311F096E911C0772321F09EE869
S1131080872F762F05C0662371F096E8862F70E0CF
S113109060E02AF09A95660F771F881FDAF7880FA9
S11310A09695879597F90895990F0008550FAA0BFF
S11310B0E0E8FEEF16161706E807F907C0F0121667
S11310C01306E407F50798F0621B730B840B950B6A
S11310D039F40A2661F0232B242B252B21F40895BF
S11310E00A2609F4A140A6958FEF811D811D08955C
S11310F097F99F6780E870E060E008959FEF80ECC7
S1131100089500240A941616170618060906089569
S113111000240A9412161306140605060895092ECF
S11311200394000C11F4882352F0BB0F40F4BF2B3E
S113113011F460FF04C06F5F7F4F8F4F9F4F08957E
S113114057FD9058440F551F59F05F3F71F0479574
S1131150880F97FB991F61F09F3F79F08795089559
S1131160121613061406551FF2CF4695F1DF08C078
S1131170161617061806991FF1CF86957105610595
S113118008940895E894BB2766277727CB0197F93D
S113119008950E94DC080C948F080E94810838F09E
S11311A00E94880820F0952311F00C9478080C9480
S11311B07E0811240C94C3080E94A00870F3959F24
S11311C0C1F3950F50E0551F629FF001729FBB273A
S11311D0F00DB11D639FAA27F00DB11DAA1F649FD6
S11311E06627B00DA11D661F829F2227B00DA11D89
S11311F0621F739FB00DA11D621F839FA00D611D0F
S1131200221F749F3327A00D611D231F849F600D2F
S1131210211D822F762F6A2F11249F5750409AF058
S1131220F1F088234AF0EE0FFF1FBB1F661F771FE4
S1131230881F91505040A9F79E3F510580F00C94AF
S113124078080C94C3085F3FE4F3983ED4F3869582
S113125077956795B795F795E7959F5FC1F7FE2B4F
S1131260880F911D9695879597F90895EE0FFF1FA6
S10F12700590F491E02D0994F894FFCF50
S105127C640008
S9030000FC
